{
  "_format": "hh-sol-artifact-1",
  "contractName": "Transactions",
  "sourceName": "contracts/Transactions.sol",
  "abi": [
    {
      "anonymous": false,
      "inputs": [
        {
          "indexed": true,
          "internalType": "address",
          "name": "previousOwner",
          "type": "address"
        },
        {
          "indexed": true,
          "internalType": "address",
          "name": "newOwner",
          "type": "address"
        }
      ],
      "name": "OwnershipTransferred",
      "type": "event"
    },
    {
      "anonymous": false,
      "inputs": [
        {
          "indexed": false,
          "internalType": "address",
          "name": "_from",
          "type": "address"
        },
        {
          "indexed": false,
          "internalType": "address",
          "name": "_receiver",
          "type": "address"
        },
        {
          "indexed": false,
          "internalType": "uint256",
          "name": "amount",
          "type": "uint256"
        },
        {
          "indexed": false,
          "internalType": "string",
          "name": "_message",
          "type": "string"
        },
        {
          "indexed": false,
          "internalType": "uint256",
          "name": "_timestamp",
          "type": "uint256"
        },
        {
          "indexed": false,
          "internalType": "string",
          "name": "_keyword",
          "type": "string"
        }
      ],
      "name": "TransferFee",
      "type": "event"
    },
    {
      "inputs": [
        {
          "internalType": "address",
          "name": "_payableReceiver",
          "type": "address"
        },
        {
          "internalType": "uint256",
          "name": "_amount",
          "type": "uint256"
        },
        {
          "internalType": "string",
          "name": "_message",
          "type": "string"
        },
        {
          "internalType": "string",
          "name": "_keyword",
          "type": "string"
        }
      ],
      "name": "addToBlockchain",
      "outputs": [],
      "stateMutability": "payable",
      "type": "function"
    },
    {
      "inputs": [
        {
          "internalType": "address",
          "name": "",
          "type": "address"
        }
      ],
      "name": "addressPaid",
      "outputs": [
        {
          "internalType": "bool",
          "name": "",
          "type": "bool"
        }
      ],
      "stateMutability": "view",
      "type": "function"
    },
    {
      "inputs": [],
      "name": "getAllTransactions",
      "outputs": [
        {
          "components": [
            {
              "internalType": "address",
              "name": "sender",
              "type": "address"
            },
            {
              "internalType": "address",
              "name": "receiver",
              "type": "address"
            },
            {
              "internalType": "uint256",
              "name": "amount",
              "type": "uint256"
            },
            {
              "internalType": "string",
              "name": "message",
              "type": "string"
            },
            {
              "internalType": "uint256",
              "name": "timestamp",
              "type": "uint256"
            },
            {
              "internalType": "string",
              "name": "keyword",
              "type": "string"
            }
          ],
          "internalType": "struct Transactions.TransferStruct[]",
          "name": "",
          "type": "tuple[]"
        }
      ],
      "stateMutability": "view",
      "type": "function"
    },
    {
      "inputs": [
        {
          "internalType": "address",
          "name": "_user",
          "type": "address"
        }
      ],
      "name": "getPaidList",
      "outputs": [
        {
          "internalType": "bool",
          "name": "",
          "type": "bool"
        }
      ],
      "stateMutability": "nonpayable",
      "type": "function"
    },
    {
      "inputs": [],
      "name": "getTransactionCount",
      "outputs": [
        {
          "internalType": "uint256",
          "name": "",
          "type": "uint256"
        }
      ],
      "stateMutability": "view",
      "type": "function"
    },
    {
      "inputs": [
        {
          "internalType": "address",
          "name": "_from",
          "type": "address"
        }
      ],
      "name": "hasPaid",
      "outputs": [
        {
          "internalType": "bool",
          "name": "",
          "type": "bool"
        }
      ],
      "stateMutability": "payable",
      "type": "function"
    },
    {
      "inputs": [],
      "name": "owner",
      "outputs": [
        {
          "internalType": "address",
          "name": "",
          "type": "address"
        }
      ],
      "stateMutability": "view",
      "type": "function"
    },
    {
      "inputs": [],
      "name": "renounceOwnership",
      "outputs": [],
      "stateMutability": "nonpayable",
      "type": "function"
    },
    {
      "inputs": [],
      "name": "subCost",
      "outputs": [
        {
          "internalType": "uint256",
          "name": "",
          "type": "uint256"
        }
      ],
      "stateMutability": "view",
      "type": "function"
    },
    {
      "inputs": [],
      "name": "transactionCount",
      "outputs": [
        {
          "internalType": "uint256",
          "name": "",
          "type": "uint256"
        }
      ],
      "stateMutability": "view",
      "type": "function"
    },
    {
      "inputs": [
        {
          "internalType": "uint256",
          "name": "",
          "type": "uint256"
        }
      ],
      "name": "transactions",
      "outputs": [
        {
          "internalType": "address",
          "name": "sender",
          "type": "address"
        },
        {
          "internalType": "address",
          "name": "receiver",
          "type": "address"
        },
        {
          "internalType": "uint256",
          "name": "amount",
          "type": "uint256"
        },
        {
          "internalType": "string",
          "name": "message",
          "type": "string"
        },
        {
          "internalType": "uint256",
          "name": "timestamp",
          "type": "uint256"
        },
        {
          "internalType": "string",
          "name": "keyword",
          "type": "string"
        }
      ],
      "stateMutability": "view",
      "type": "function"
    },
    {
      "inputs": [
        {
          "internalType": "address",
          "name": "newOwner",
          "type": "address"
        }
      ],
      "name": "transferOwnership",
      "outputs": [],
      "stateMutability": "nonpayable",
      "type": "function"
    },
    {
      "inputs": [
        {
          "internalType": "uint256",
          "name": "",
          "type": "uint256"
        }
      ],
      "name": "users",
      "outputs": [
        {
          "internalType": "address",
          "name": "",
          "type": "address"
        }
      ],
      "stateMutability": "view",
      "type": "function"
    },
    {
      "inputs": [],
      "name": "usersNum",
      "outputs": [
        {
          "internalType": "uint256",
          "name": "",
          "type": "uint256"
        }
      ],
      "stateMutability": "view",
      "type": "function"
    },
    {
      "inputs": [],
      "name": "withdraw",
      "outputs": [],
      "stateMutability": "payable",
      "type": "function"
    }
  ],
  "bytecode": "0x608060405260006003556601c6bf5263400060055534801561002057600080fd5b5061003d61003261004260201b60201c565b61004a60201b60201c565b61010e565b600033905090565b60008060009054906101000a900473ffffffffffffffffffffffffffffffffffffffff169050816000806101000a81548173ffffffffffffffffffffffffffffffffffffffff021916908373ffffffffffffffffffffffffffffffffffffffff1602179055508173ffffffffffffffffffffffffffffffffffffffff168173ffffffffffffffffffffffffffffffffffffffff167f8be0079c531659141344cd1fd0a4f28419497f9722a3daafe3b4186f6b6457e060405160405180910390a35050565b6116e78061011d6000396000f3fe6080604052600436106100e85760003560e01c806394cfbba71161008a578063cc2d7ead11610059578063cc2d7ead146102de578063ef078bba146102fa578063f2fde38b14610325578063fbf47a9a1461034e576100e8565b806394cfbba7146101f75780639ace38c214610234578063b42dbb7414610276578063b77bf600146102b3576100e8565b80633ccfd60b116100c65780633ccfd60b14610180578063715018a61461018a5780638425f415146101a15780638da5cb5b146101cc576100e8565b806327506f53146100ed5780632e7700f014610118578063365b98b214610143575b600080fd5b3480156100f957600080fd5b5061010261037e565b60405161010f9190611356565b60405180910390f35b34801561012457600080fd5b5061012d6105c1565b60405161013a91906113f3565b60405180910390f35b34801561014f57600080fd5b5061016a60048036038101906101659190610f92565b6105cb565b60405161017791906112cc565b60405180910390f35b61018861060a565b005b34801561019657600080fd5b5061019f610692565b005b3480156101ad57600080fd5b506101b66106a6565b6040516101c391906113f3565b60405180910390f35b3480156101d857600080fd5b506101e16106ac565b6040516101ee91906112cc565b60405180910390f35b34801561020357600080fd5b5061021e60048036038101906102199190610ed6565b6106d5565b60405161022b9190611378565b60405180910390f35b34801561024057600080fd5b5061025b60048036038101906102569190610f92565b61078a565b60405161026d969594939291906112e7565b60405180910390f35b34801561028257600080fd5b5061029d60048036038101906102989190610ed6565b610926565b6040516102aa9190611378565b60405180910390f35b3480156102bf57600080fd5b506102c8610946565b6040516102d591906113f3565b60405180910390f35b6102f860048036038101906102f39190610eff565b61094c565b005b34801561030657600080fd5b5061030f610b0d565b60405161031c91906113f3565b60405180910390f35b34801561033157600080fd5b5061034c60048036038101906103479190610ed6565b610b13565b005b61036860048036038101906103639190610ed6565b610b97565b6040516103759190611378565b60405180910390f35b60606002805480602002602001604051908101604052809291908181526020016000905b828210156105b857838290600052602060002090600602016040518060c00160405290816000820160009054906101000a900473ffffffffffffffffffffffffffffffffffffffff1673ffffffffffffffffffffffffffffffffffffffff1673ffffffffffffffffffffffffffffffffffffffff1681526020016001820160009054906101000a900473ffffffffffffffffffffffffffffffffffffffff1673ffffffffffffffffffffffffffffffffffffffff1673ffffffffffffffffffffffffffffffffffffffff1681526020016002820154815260200160038201805461048b9061156a565b80601f01602080910402602001604051908101604052809291908181526020018280546104b79061156a565b80156105045780601f106104d957610100808354040283529160200191610504565b820191906000526020600020905b8154815290600101906020018083116104e757829003601f168201915b50505050508152602001600482015481526020016005820180546105279061156a565b80601f01602080910402602001604051908101604052809291908181526020018280546105539061156a565b80156105a05780601f10610575576101008083540402835291602001916105a0565b820191906000526020600020905b81548152906001019060200180831161058357829003601f168201915b505050505081525050815260200190600101906103a2565b50505050905090565b6000600154905090565b600681815481106105db57600080fd5b906000526020600020016000915054906101000a900473ffffffffffffffffffffffffffffffffffffffff1681565b610612610c57565b600061061c6106ac565b73ffffffffffffffffffffffffffffffffffffffff164760405161063f906112b7565b60006040518083038185875af1925050503d806000811461067c576040519150601f19603f3d011682016040523d82523d6000602084013e610681565b606091505b505090508061068f57600080fd5b50565b61069a610c57565b6106a46000610cd5565b565b60055481565b60008060009054906101000a900473ffffffffffffffffffffffffffffffffffffffff16905090565b600060011515600460008473ffffffffffffffffffffffffffffffffffffffff1673ffffffffffffffffffffffffffffffffffffffff16815260200190815260200160002060009054906101000a900460ff161515141561078457600460008373ffffffffffffffffffffffffffffffffffffffff1673ffffffffffffffffffffffffffffffffffffffff16815260200190815260200160002060009054906101000a900460ff169050610785565b5b919050565b6002818154811061079a57600080fd5b90600052602060002090600602016000915090508060000160009054906101000a900473ffffffffffffffffffffffffffffffffffffffff16908060010160009054906101000a900473ffffffffffffffffffffffffffffffffffffffff169080600201549080600301805461080f9061156a565b80601f016020809104026020016040519081016040528092919081815260200182805461083b9061156a565b80156108885780601f1061085d57610100808354040283529160200191610888565b820191906000526020600020905b81548152906001019060200180831161086b57829003601f168201915b5050505050908060040154908060050180546108a39061156a565b80601f01602080910402602001604051908101604052809291908181526020018280546108cf9061156a565b801561091c5780601f106108f15761010080835404028352916020019161091c565b820191906000526020600020905b8154815290600101906020018083116108ff57829003601f168201915b5050505050905086565b60046020528060005260406000206000915054906101000a900460ff1681565b60015481565b6001600081548092919061095f9061159c565b919050555060026040518060c001604052803373ffffffffffffffffffffffffffffffffffffffff1681526020018673ffffffffffffffffffffffffffffffffffffffff16815260200185815260200184815260200142815260200183815250908060018154018082558091505060019003906000526020600020906006020160009091909190915060008201518160000160006101000a81548173ffffffffffffffffffffffffffffffffffffffff021916908373ffffffffffffffffffffffffffffffffffffffff16021790555060208201518160010160006101000a81548173ffffffffffffffffffffffffffffffffffffffff021916908373ffffffffffffffffffffffffffffffffffffffff160217905550604082015181600201556060820151816003019080519060200190610a9c929190610da1565b506080820151816004015560a0820151816005019080519060200190610ac3929190610da1565b5050507fa7c0c4b91c3ca2369219736381f2a2299a9eb9a7a5496ee587dd24e4950eb2e2338585854286604051610aff969594939291906112e7565b60405180910390a150505050565b60035481565b610b1b610c57565b600073ffffffffffffffffffffffffffffffffffffffff168173ffffffffffffffffffffffffffffffffffffffff161415610b8b576040517f08c379a0000000000000000000000000000000000000000000000000000000008152600401610b8290611393565b60405180910390fd5b610b9481610cd5565b50565b6000600554341015610bde576040517f08c379a0000000000000000000000000000000000000000000000000000000008152600401610bd5906113d3565b60405180910390fd5b60036000815480929190610bf19061159c565b91905055506001600460008473ffffffffffffffffffffffffffffffffffffffff1673ffffffffffffffffffffffffffffffffffffffff16815260200190815260200160002060006101000a81548160ff02191690831515021790555060019050919050565b610c5f610d99565b73ffffffffffffffffffffffffffffffffffffffff16610c7d6106ac565b73ffffffffffffffffffffffffffffffffffffffff1614610cd3576040517f08c379a0000000000000000000000000000000000000000000000000000000008152600401610cca906113b3565b60405180910390fd5b565b60008060009054906101000a900473ffffffffffffffffffffffffffffffffffffffff169050816000806101000a81548173ffffffffffffffffffffffffffffffffffffffff021916908373ffffffffffffffffffffffffffffffffffffffff1602179055508173ffffffffffffffffffffffffffffffffffffffff168173ffffffffffffffffffffffffffffffffffffffff167f8be0079c531659141344cd1fd0a4f28419497f9722a3daafe3b4186f6b6457e060405160405180910390a35050565b600033905090565b828054610dad9061156a565b90600052602060002090601f016020900481019282610dcf5760008555610e16565b82601f10610de857805160ff1916838001178555610e16565b82800160010185558215610e16579182015b82811115610e15578251825591602001919060010190610dfa565b5b509050610e239190610e27565b5090565b5b80821115610e40576000816000905550600101610e28565b5090565b6000610e57610e528461143f565b61140e565b905082815260208101848484011115610e6f57600080fd5b610e7a848285611528565b509392505050565b600081359050610e9181611683565b92915050565b600082601f830112610ea857600080fd5b8135610eb8848260208601610e44565b91505092915050565b600081359050610ed08161169a565b92915050565b600060208284031215610ee857600080fd5b6000610ef684828501610e82565b91505092915050565b60008060008060808587031215610f1557600080fd5b6000610f2387828801610e82565b9450506020610f3487828801610ec1565b935050604085013567ffffffffffffffff811115610f5157600080fd5b610f5d87828801610e97565b925050606085013567ffffffffffffffff811115610f7a57600080fd5b610f8687828801610e97565b91505092959194509250565b600060208284031215610fa457600080fd5b6000610fb284828501610ec1565b91505092915050565b6000610fc78383611209565b905092915050565b610fd8816114e0565b82525050565b610fe7816114e0565b82525050565b6000610ff88261147f565b61100281856114a2565b9350836020820285016110148561146f565b8060005b8581101561105057848403895281516110318582610fbb565b945061103c83611495565b925060208a01995050600181019050611018565b50829750879550505050505092915050565b61106b816114f2565b82525050565b600061107c8261148a565b61108681856114be565b9350611096818560208601611537565b61109f81611672565b840191505092915050565b60006110b58261148a565b6110bf81856114cf565b93506110cf818560208601611537565b6110d881611672565b840191505092915050565b60006110f06026836114cf565b91507f4f776e61626c653a206e6577206f776e657220697320746865207a65726f206160008301527f64647265737300000000000000000000000000000000000000000000000000006020830152604082019050919050565b60006111566011836114b3565b91507f486572657320596f7572205061796f75740000000000000000000000000000006000830152601182019050919050565b60006111966020836114cf565b91507f4f776e61626c653a2063616c6c6572206973206e6f7420746865206f776e65726000830152602082019050919050565b60006111d6601a836114cf565b91507f506c656173652053656e6420436f727265637420416d6f756e740000000000006000830152602082019050919050565b600060c0830160008301516112216000860182610fcf565b5060208301516112346020860182610fcf565b5060408301516112476040860182611299565b506060830151848203606086015261125f8282611071565b91505060808301516112746080860182611299565b5060a083015184820360a086015261128c8282611071565b9150508091505092915050565b6112a28161151e565b82525050565b6112b18161151e565b82525050565b60006112c282611149565b9150819050919050565b60006020820190506112e16000830184610fde565b92915050565b600060c0820190506112fc6000830189610fde565b6113096020830188610fde565b61131660408301876112a8565b818103606083015261132881866110aa565b905061133760808301856112a8565b81810360a083015261134981846110aa565b9050979650505050505050565b600060208201905081810360008301526113708184610fed565b905092915050565b600060208201905061138d6000830184611062565b92915050565b600060208201905081810360008301526113ac816110e3565b9050919050565b600060208201905081810360008301526113cc81611189565b9050919050565b600060208201905081810360008301526113ec816111c9565b9050919050565b600060208201905061140860008301846112a8565b92915050565b6000604051905081810181811067ffffffffffffffff8211171561143557611434611643565b5b8060405250919050565b600067ffffffffffffffff82111561145a57611459611643565b5b601f19601f8301169050602081019050919050565b6000819050602082019050919050565b600081519050919050565b600081519050919050565b6000602082019050919050565b600082825260208201905092915050565b600081905092915050565b600082825260208201905092915050565b600082825260208201905092915050565b60006114eb826114fe565b9050919050565b60008115159050919050565b600073ffffffffffffffffffffffffffffffffffffffff82169050919050565b6000819050919050565b82818337600083830152505050565b60005b8381101561155557808201518184015260208101905061153a565b83811115611564576000848401525b50505050565b6000600282049050600182168061158257607f821691505b6020821081141561159657611595611614565b5b50919050565b60006115a78261151e565b91507fffffffffffffffffffffffffffffffffffffffffffffffffffffffffffffffff8214156115da576115d96115e5565b5b600182019050919050565b7f4e487b7100000000000000000000000000000000000000000000000000000000600052601160045260246000fd5b7f4e487b7100000000000000000000000000000000000000000000000000000000600052602260045260246000fd5b7f4e487b7100000000000000000000000000000000000000000000000000000000600052604160045260246000fd5b6000601f19601f8301169050919050565b61168c816114e0565b811461169757600080fd5b50565b6116a38161151e565b81146116ae57600080fd5b5056fea26469706673582212201f5a60e5991ee1a3d53338baabd0f9a8007c8286a6dbdf2726d6300bc39b5e9664736f6c63430008000033",
  "linkReferences": {},
  "deployedLinkReferences": {}
}